:020000040800F2
:10000000600600200D020008150200081702000813
:10001000190200081B0200081D0200080000000071
:100020000000000000000000000000001F020008A7
:100030002102000800000000230200082502000839
:1000400027020008270200082702000827020008EC
:1000500027020008270200082702000827020008DC
:1000600027020008270200082702000827020008CC
:1000700027020008270200082702000827020008BC
:1000800027020008270200082702000827020008AC
:10009000270200082702000827020008270200089C
:1000A000270200082702000827020008270200088C
:1000B000270200082702000827020008270200087C
:1000C000270200082702000827020008270200086C
:1000D000270200082702000827020008270200085C
:1000E000270200082702000827020008270200084C
:1000F000270200082702000827020008270200083C
:10010000270200082702000827020008270200082B
:10011000270200082702000827020008270200081B
:10012000270200082702000827020008270200080B
:1001300027020008270200082702000827020008FB
:1001400027020008270200082702000827020008EB
:1001500027020008270200082702000827020008DB
:1001600027020008270200082702000827020008CB
:1001700027020008270200082702000800000000EC
:10018000270200082702000800F002F800F02EF80D
:100190000AA090E8000C82448344AAF10107DA45E2
:1001A00001D100F023F8AFF2090EBAE80F0013F006
:1001B000010F18BFFB1A43F0010318472406000083
:1001C000340600000023002400250026103A28BF32
:1001D00078C1FBD8520728BF30C148BF0B607047B9
:1001E0001FB500F0F7FA1FBD10B510BD00F031F8D3
:1001F0001146FFF7F5FF00F0EFF900F04FF803B4F8
:10020000FFF7F2FF03BC00F057F8000009488047F1
:1002100009480047FEE7FEE7FEE7FEE7FEE7FEE7E8
:10022000FEE7FEE7FEE7FEE704480549054A064B00
:1002300070470000ED0400088901000860000020FC
:1002400060060020600200206002002070477047B6
:100250007047754600F02CF8AE46050069465346D7
:1002600020F00700854618B020B5FFF7DDFFBDE898
:1002700020404FF000064FF000074FF000084FF00D
:10028000000B21F00701AC46ACE8C009ACE8C0099E
:10029000ACE8C009ACE8C0098D46704710B504460B
:1002A000AFF300802046BDE81040FFF7A8BF000074
:1002B000004870470000002001491820ABBEFEE74F
:1002C0002600020070470000F8B502460B460025E4
:1002D000002400200021DCE0012606FA01F51E685A
:1002E00006EA0504AC4273D15E68022E02D05E6855
:1002F000122E13D1CF0802F1200656F827004E0720
:10030000F70E0F26BE40B0434F07FF0E1E69BE40DA
:100310003043CF0802F1200646F8270010684F004E
:100320000326BE40B0431E7906F003064F00BE40D0
:10033000304310605E68012E08D05E68022E05D042
:100340005E68112E02D05E68122E13D190684F00A5
:100350000326BE40B0434F00DE68BE40304390608D
:10036000506801268E40B0431E79C6F300168E40B9
:1003700030435060D0684F000326BE40B0434F006A
:100380009E68BE403043D0605E6806F08056B6F18D
:10039000805F7DD100BF00260096404E366846F44F
:1003A00080463E4F3E603E46366806F480460096E4
:1003B00000BF00BF3A4E8F0856F827008E07370F50
:1003C0000F26BE40B043374EB24202D1002624E091
:1003D0005EE0354EB24201D101261EE0334EB242FC
:1003E00001D1022619E0324EB24201D1032614E0B7
:1003F000304EB24201D104260FE02F4EB24201D15D
:1004000005260AE02D4EB24201D1062605E02C4E0B
:10041000B24201D1072600E008268F073F0FBE40F9
:1004200030431F4E8F0846F82700264E3068A04301
:100430005E6806F48036B6F5803F00D12043214E39
:100440003060361D3068A0435E6806F40036B6F5AD
:10045000003F00D120431B4E361D3060361D3068F2
:10046000A0435E6806F48016B6F5801F00D12043D5
:10047000144E08363060361D3068A0435E6806F4BE
:100480000016B6F5001F00D120430E4E0C3630602A
:10049000491C1029FFF420AFF8BD00004438024089
:1004A00008380140000002400004024000080240F9
:1004B000000C0240001002400014024000180240EC
:1004C000001C0240003C0140024613690B400BB186
:1004D000012000E00020704742694A4042617047B5
:1004E0000AB1816101E00B04836170471448006820
:1004F00040F47000124908601248006840F00100A2
:100500001049086000200F49083108600D48006854
:100510000D4908400B4908600C48091D0860081F78
:10052000006820F48020091F0860002005490C3174
:1005300008604FF000600249803908607047000091
:1005400088ED00E000380240FFFFF6FE1030002486
:1005500000B587B000BF002001901748006840F048
:100560000100154908600846006800F0010001908C
:1005700000BF00BF00BF002001900846006840F0A7
:10058000080008600846006800F00800019000BFFD
:1005900000BF012003904FF47040029002A9074869
:1005A000FFF792FE002003900120029002A9044868
:1005B000FFF78AFE07B000BD30380240000C024051
:1005C00000000240002101E04A1C91B24FF47A621F
:1005D00042438A42F8DC7047FFF7BAFF012441E04A
:1005E00001212148FFF770FF012812D144F6206550
:1005F00000F070F809E001211B48FFF765FF0128B2
:1006000003D1641C032C00DB01E0002DF3DA00BFF2
:1006100000BF012C04D0022C05D0032C1DD10FE00B
:1006200000F070F81DE000F03BF84FF4FA70FFF7AF
:10063000C9FF00F0B7F84FF4FA70FFF7C3FF10E0FE
:1006400000F014F84FF4FA70FFF7BCFF00F0AAF8BE
:100650004FF4FA70FFF7B6FF03E0002400F052F801
:1006600000BF00BFBCE700000000024010B501223F
:1006700011030A48FFF734FF00224FF400510748E6
:10068000FFF72EFF00224FF480410448FFF728FFB8
:100690000122D1030148FFF723FF10BD000C0240E7
:1006A00010B5012211030A48FFF71AFF00224FF488
:1006B00000510748FFF714FF012291030448FFF798
:1006C0000FFF00224FF400410148FFF709FF10BD62
:1006D000000C024010B5012211030948FFF700FF8A
:1006E000012251030648FFF7FBFE01229103044853
:1006F000FFF7F6FE0122D1030148FFF7F1FE10BD1E
:10070000000C024010B5012211032548FFF7E8FE56
:100710004FF4FA70FFF756FF012251032048FFF70C
:10072000DFFE4FF4FA70FFF74DFF012291031C48E2
:10073000FFF7D6FE4FF4FA70FFF744FF0122D10312
:100740001748FFF7CDFE4FF4FA70FFF73BFF00228A
:100750004FF400411248FFF7C3FE4FF4FA70FFF761
:1007600031FF00224FF480410D48FFF7B9FE4FF4EE
:10077000FA70FFF727FF00224FF400510848FFF7F7
:10078000AFFE4FF4FA70FFF71DFF00224FF48051C7
:100790000348FFF7A5FE4FF4FA70FFF713FF10BDF3
:1007A000000C024010B54FF480510948FFF794FE49
:1007B0004FF400510648FFF78FFE4FF48041044884
:1007C000FFF78AFE4FF400410148FFF785FE10BD98
:1007D000000C02404FF04070E1EE100A704700003C
:1007E000F00700080000002060060000C4010008B7
:040000050800020DE0
:00000001FF
